{
  "contractName": "Contest",
  "abi": [
    {
      "inputs": [],
      "stateMutability": "nonpayable",
      "type": "constructor"
    },
    {
      "anonymous": false,
      "inputs": [
        {
          "indexed": true,
          "internalType": "uint256",
          "name": "_contestantId",
          "type": "uint256"
        }
      ],
      "name": "votedEvent",
      "type": "event"
    },
    {
      "inputs": [
        {
          "internalType": "uint256",
          "name": "",
          "type": "uint256"
        }
      ],
      "name": "contestants",
      "outputs": [
        {
          "internalType": "uint256",
          "name": "id",
          "type": "uint256"
        },
        {
          "internalType": "string",
          "name": "name",
          "type": "string"
        },
        {
          "internalType": "uint256",
          "name": "voteCount",
          "type": "uint256"
        }
      ],
      "stateMutability": "view",
      "type": "function",
      "constant": true
    },
    {
      "inputs": [],
      "name": "contestantsCount",
      "outputs": [
        {
          "internalType": "uint256",
          "name": "",
          "type": "uint256"
        }
      ],
      "stateMutability": "view",
      "type": "function",
      "constant": true
    },
    {
      "inputs": [
        {
          "internalType": "address",
          "name": "",
          "type": "address"
        }
      ],
      "name": "voters",
      "outputs": [
        {
          "internalType": "bool",
          "name": "",
          "type": "bool"
        }
      ],
      "stateMutability": "view",
      "type": "function",
      "constant": true
    },
    {
      "inputs": [
        {
          "internalType": "uint256",
          "name": "_contestantId",
          "type": "uint256"
        }
      ],
      "name": "vote",
      "outputs": [],
      "stateMutability": "nonpayable",
      "type": "function"
    }
  ],
  "bytecode": "0x608060405234801561001057600080fd5b506100556040518060400160405280600381526020017f546f6d000000000000000000000000000000000000000000000000000000000081525061009e60201b60201c565b6100996040518060400160405280600581526020017f4a6572727900000000000000000000000000000000000000000000000000000081525061009e60201b60201c565b6102a5565b600260008154809291906100b1906101fe565b9190505550604051806060016040528060025481526020018281526020016000815250600080600254815260200190815260200160002060008201518160000155602082015181600101908051906020019061010e92919061011f565b506040820151816002015590505050565b82805461012b906101cc565b90600052602060002090601f01602090048101928261014d5760008555610194565b82601f1061016657805160ff1916838001178555610194565b82800160010185558215610194579182015b82811115610193578251825591602001919060010190610178565b5b5090506101a191906101a5565b5090565b5b808211156101be5760008160009055506001016101a6565b5090565b6000819050919050565b600060028204905060018216806101e457607f821691505b602082108114156101f8576101f7610276565b5b50919050565b6000610209826101c2565b91507fffffffffffffffffffffffffffffffffffffffffffffffffffffffffffffffff82141561023c5761023b610247565b5b600182019050919050565b7f4e487b7100000000000000000000000000000000000000000000000000000000600052601160045260246000fd5b7f4e487b7100000000000000000000000000000000000000000000000000000000600052602260045260246000fd5b610615806102b46000396000f3fe608060405234801561001057600080fd5b506004361061004c5760003560e01c80630121b93f14610051578063a3ec138d1461006d578063dfd50f521461009d578063ec63d1c8146100cf575b600080fd5b61006b6004803603810190610066919061033c565b6100ed565b005b61008760048036038101906100829190610313565b610211565b60405161009491906103bc565b60405180910390f35b6100b760048036038101906100b2919061033c565b610231565b6040516100c6939291906103f2565b60405180910390f35b6100d76102e3565b6040516100e491906103d7565b60405180910390f35b600160003373ffffffffffffffffffffffffffffffffffffffff1673ffffffffffffffffffffffffffffffffffffffff16815260200190815260200160002060009054906101000a900460ff161561014457600080fd5b60008111801561015657506002548111155b61015f57600080fd5b6000808281526020019081526020016000206002016000815480929190610185906104f9565b919050555060018060003373ffffffffffffffffffffffffffffffffffffffff1673ffffffffffffffffffffffffffffffffffffffff16815260200190815260200160002060006101000a81548160ff021916908315150217905550807ffff3c900d938d21d0990d786e819f29b8d05c1ef587b462b939609625b684b1660405160405180910390a250565b60016020528060005260406000206000915054906101000a900460ff1681565b600060205280600052604060002060009150905080600001549080600101805461025a906104c7565b80601f0160208091040260200160405190810160405280929190818152602001828054610286906104c7565b80156102d35780601f106102a8576101008083540402835291602001916102d3565b820191906000526020600020905b8154815290600101906020018083116102b657829003601f168201915b5050505050908060020154905083565b60025481565b6000813590506102f8816105b1565b92915050565b60008135905061030d816105c8565b92915050565b60006020828403121561032557600080fd5b6000610333848285016102e9565b91505092915050565b60006020828403121561034e57600080fd5b600061035c848285016102fe565b91505092915050565b61036e8161045e565b82525050565b600061037f82610430565b610389818561043b565b9350610399818560208601610494565b6103a2816105a0565b840191505092915050565b6103b68161048a565b82525050565b60006020820190506103d16000830184610365565b92915050565b60006020820190506103ec60008301846103ad565b92915050565b600060608201905061040760008301866103ad565b81810360208301526104198185610374565b905061042860408301846103ad565b949350505050565b600081519050919050565b600082825260208201905092915050565b60006104578261046a565b9050919050565b60008115159050919050565b600073ffffffffffffffffffffffffffffffffffffffff82169050919050565b6000819050919050565b60005b838110156104b2578082015181840152602081019050610497565b838111156104c1576000848401525b50505050565b600060028204905060018216806104df57607f821691505b602082108114156104f3576104f2610571565b5b50919050565b60006105048261048a565b91507fffffffffffffffffffffffffffffffffffffffffffffffffffffffffffffffff82141561053757610536610542565b5b600182019050919050565b7f4e487b7100000000000000000000000000000000000000000000000000000000600052601160045260246000fd5b7f4e487b7100000000000000000000000000000000000000000000000000000000600052602260045260246000fd5b6000601f19601f8301169050919050565b6105ba8161044c565b81146105c557600080fd5b50565b6105d18161048a565b81146105dc57600080fd5b5056fea2646970667358221220e1b31d430978c0e689f827f1ad09728edaa337275bb4b92ec02cad6421a7d59d64736f6c63430008040033",
  "immutableReferences": {},
  "source": "pragma solidity 0.8.4;\r\n \r\n//creating the contract\r\ncontract Contest {\r\n \r\n\t//creating strcture to model the contestant\r\n\tstruct Contestant {\r\n\t\tuint id;\r\n\t\tstring name;\r\n\t\tuint voteCount;\r\n\t}\r\n \r\n\t//use mapping to get or fetch the contestant details\r\n\tmapping(uint => Contestant) public contestants;\r\n \r\n\t//to save the list of users/accounts who already casted vote\r\n\tmapping(address => bool) public voters;\r\n \r\n\t//add a public state variable to keep track of contestant Count\r\n\tuint public contestantsCount;\r\n \r\n\tevent votedEvent (\r\n        uint indexed _contestantId\r\n    );\r\n \r\n    constructor() public {\r\n\t\taddContestant(\"Tom\");\r\n\t\taddContestant(\"Jerry\");\r\n\t}\r\n \r\n\t//add a function to add contestant\r\n\tfunction addContestant (string memory _name) private {\r\n\t\tcontestantsCount ++;\r\n\t\tcontestants[contestantsCount] = Contestant(contestantsCount, _name, 0);\r\n\t}\r\n \r\n\tfunction vote (uint _contestantId) public {\r\n\t\t//restricting the person who already casted the vote\r\n\t\trequire(!voters[msg.sender]);\r\n\t\t//require that the vote is casted to a valid contestant\r\n\t\trequire(_contestantId > 0 && _contestantId <= contestantsCount);\r\n\t\t//increase the contestant vote count\r\n\t\tcontestants[_contestantId].voteCount ++;\r\n\t\t//set the voter's voted status to true\r\n\t\tvoters[msg.sender] = true;\r\n \r\n\t\t//trigger the vote event\r\n\t\temit votedEvent(_contestantId);\r\n\t}\r\n}",
  "sourcePath": "C:\\Users\\IT\\Dropbox\\PC (2)\\Desktop\\Learning Purpose\\JavaScripts\\JavaScripts\\jsBlockchain\\etherium\\contest\\contracts\\Contest.sol",
  "compiler": {
    "name": "solc",
    "version": "0.8.4+commit.c7e474f2.Emscripten.clang"
  },
  "schemaVersion": "3.4.11",
  "updatedAt": "2023-01-29T18:43:29.430Z",
  "networkType": "ethereum",
  "devdoc": {
    "kind": "dev",
    "methods": {},
    "version": 1
  },
  "userdoc": {
    "kind": "user",
    "methods": {},
    "version": 1
  }
}